:1007CC007F01120797120003D2A0D2A1D2A2D2A30A
:0507DC0012081080FB73
:10079700E4F5C8FCFDFEFB7A407919780112055192
:1007A700E47B707A17F9F81205DCC3E49FFFE49E37
:1007B700AD07AE05F5CDF5CB8ECC8ECAC2CFD2AD87
:0407C700D2AFD2CA11
:0107CB00220B
:0408100043870122F7
:1007E100011D00040C0000003C0408000000000191
:0207F1001C01E9
:0A002100EFC454F0FF440FF5A022D5
:03002B0002002EA2
:10002E00C0E0C0F0C083C082C0D075D000C000C098
:10003E0001C002C003C004C005C006C007C2CF1273
:10004E0007F48B108A1189121207FB8B138A1489FD
:10005E00151208028B168A1789181208098B198A2D
:10006E001A891BAF0BAE0AAD09AC08EF2401F50BD4
:10007E00E43EF50AE43DF509E43CF508AB10AA119F
:10008E00A91212067FAB13AA14A91512067FAB167E
:10009E00AA17A91812067FAB19AA1AA91B12067F56
:1000AE00E51D60030201627F0F120021AB10AA1141
:1000BE00A9129000021204CFB4021A751D01750B1D
:1000CE0000750A007509007508009000027403128D
:1000DE00052F02049BAB19AA1AA91B900002120449
:1000EE00CFB4021A751D05750B00750A007509004F
:1000FE00750800900002740312052F02049BAB13C7
:10010E00AA14A9159000021204CFB4021A751D0983
:10011E00750B00750A0075090075080090000274D1
:10012E000312052F02049BAB16AA17A91890000202
:10013E001204CF6402600302049B751D0990000235
:10014E00740312052F750B00750A007509007508EA
:10015E000002049BE51D6401704D7F07120021AF64
:10016E000FAE0EAD0DAC0CAB0BAA0AA909A808C3B5
:10017E0012066E4012751D02750B00750A00750988
:10018E000075080002049BAB10AA11A91290000280
:10019E001204CF6402600302049BF51D90000274EA
:1001AE000312052F02049BE51D6402704D7F03129E
:1001BE000021AF0FAE0EAD0DAC0CAB0BAA0AA90908
:1001CE00A808C312066E4012751D03750B00750A42
:1001DE000075090075080002049BAB10AA11A91244
:1001EE009000021204CF6402600302049BF51D907E
:1001FE000002740312052F02049BE51D6403704D6B
:10020E007F01120021AF0FAE0EAD0DAC0CAB0BAAE1
:10021E000AA909A808C312066E4012751D04750BB3
:10022E0000750A0075090075080002049BAB10AA40
:10023E0011A9129000021204CF6402600302049B03
:10024E00F51D900002740312052F02049BE51D6438
:10025E0004704CFF120021AF0FAE0EAD0DAC0CAB07
:10026E000BAA0AA909A808C312066E4012751D0131
:10027E00750B00750A0075090075080002049BAB2A
:10028E0010AA11A9129000021204CF640260030298
:10029E00049BF51D900002740312052F02049BE5CA
:1002AE001D6405704D7F0E120021AF0FAE0EAD0D09
:1002BE00AC0CAB0BAA0AA909A808C312066E401211
:1002CE00751D06750B00750A00750900750800028C
:1002DE00049BAB19AA1AA91B9000021204CF640248
:1002EE00600302049BF51D900002740312052F0299
:1002FE00049BE51D6406704D7F0C120021AF0FAEFE
:10030E000EAD0DAC0CAB0BAA0AA909A808C31206B8
:10031E006E4012751D07750B00750A007509007584
:10032E00080002049BAB19AA1AA91B900002120422
:10033E00CF6402600302049BF51D90000274031249
:10034E00052F02049BE51D6407704D7F08120021E6
:10035E00AF0FAE0EAD0DAC0CAB0BAA0AA909A808D7
:10036E00C312066E4012751D08750B00750A0075D6
:10037E00090075080002049BAB19AA1AA91B90006C
:10038E00021204CF6402600302049BF51D9000026A
:10039E00740312052F02049BE51D6408704CFF12B6
:1003AE000021AF0FAE0EAD0DAC0CAB0BAA0AA90916
:1003BE00A808C312066E4012751D05750B00750A4E
:1003CE000075090075080002049BAB19AA1AA91B37
:1003DE009000021204CF6402600302049BF51D908C
:1003EE000002740312052F02049BE51D64096003CD
:1003FE0002049BE51CF4FF120021AF1CEF75F03CCC
:10040E00A4FFAEF0E48F0F8E0EF50DF50CAB13AA14
:10041E0014A9159000021204CFB40216051CE51C97
:10042E00C3940F4003751C0F900002740312052F26
:10043E00805BAB16AA17A9189000021204CFB40263
:10044E0016151CE51CD394015003751C0190000277
:10045E00740312052F8036AB10AA11A91290000258
:10046E001204CFB4020D751D009000027403120524
:10047E002F801AAB19AA1AA91B9000021204CFB42E
:10048E00020B751D00900002740312052FD007D0C9
:10049E0006D005D004D003D002D001D000D0D0D0E9
:0804AE0082D083D0F0D0E032CF
:0707F4007B007A00791E2250
:0707FB007B007A0079212246
:070802007B007A007924223B
:070809007B007A0079272231
:10000300751E01E4F51FF520752102F522F5237510
:0E0013002404F525F526752708F528F5292281
:10067F009000021204CFFF70151204B655A0707BC4
:10068F0090000112052F900002740102052FEF64F4
:10069F00017028900001041204FC9000011204CF95
:1006AF00C3943240561204B655A0700890000274DD
:1006BF000202052F900002E402052FEFB4030F1280
:1006CF0004B655A06035900002740402052FEF6444
:1006DF00047028900001041204FC9000011204CF52
:1006EF00C3943240161204B655A06007900002E47E
:0C06FF0002052F900002740312052F2248
:0300000002070BE9
:0C070B00787FE4F6D8FD758129020752C2
:1004B600BB010689828A83E0225002E722BBFE0244
:0904C600E32289828A83E4932277
:1004CF00BB010CE58229F582E5833AF583E02250E2
:1004DF0006E92582F8E622BBFE06E92582F8E2222C
:0D04EF00E58229F582E5833AF583E4932246
:1004FC00BB010FF8E58229F582E5833AF583E02804
:10050C00F0225009C58229F8E58226F622BBFE09A5
:10051C00C58229F8E22582F222F8EA2583F583E9DF
:03052C00932822EF
:10052F00F8BB010DE58229F582E5833AF583E8F002
:10053F00225006E92582C8F622BBFE05E92582C8AE
:02054F00F22296
:10055100E88FF0A4CC8BF0A42CFCE98EF0A42CFC49
:100561008AF0EDA42CFCEA8EF0A4CDA8F08BF0A4C7
:100571002DCC3825F0FDE98FF0A42CCD35F0FCEB26
:100581008EF0A4FEA9F0EB8FF0A4CFC5F02ECD39EB
:0F059100FEE43CFCEAA42DCE35F0FDE43CFC2258
:1005A00075F008758200EF2FFFEE33FECD33CDCC12
:1005B00033CCC58233C5829BED9AEC99E582984095
:1005C0000CF582EE9BFEED9AFDEC99FC0FD5F0D672
:1005D000E4CEFBE4CDFAE4CCF9A88222B800C1B99C
:1005E0000059BA002DEC8BF084CFCECDFCE5F0CBDA
:1005F000F97818EF2FFFEE33FEED33FDEC33FCEB13
:1006000033FB10D703994004EB99FB0FD8E5E4F9CD
:10061000FA227818EF2FFFEE33FEED33FDEC33FCBA
:10062000C933C910D7059BE99A4007EC9BFCE99AAE
:10063000F90FD8E0E4C9FAE4CCFB2275F010EF2FF3
:10064000FFEE33FEED33FDCC33CCC833C810D707F3
:100650009BEC9AE899400AED9BFDEC9AFCE899F82E
:0E0660000FD5F0DAE4CDFBE4CCFAE4C8F922C1
:10066E00EB9FF5F0EA9E42F0E99D42F0E89C45F0E2
:01067E002259
:100717000207CCE493A3F8E493A34003F68001F225
:1007270008DFF48029E493A3F85407240CC8C333E3
:10073700C4540F4420C8834004F456800146F6DFB2
:10074700E4800B01020408102040809007E1E47E5A
:10075700019360BCA3FF543F30E509541FFEE493A7
:10076700A360010ECF54C025E060A840B8E493A36E
:10077700FAE493A3F8E493A3C8C582C8CAC583CA99
:10078700F0A3C8C582C8CAC583CADFE9DEE780BE51
:0107F3000005
:00000001FF
