:0D0506007F011204AF12000312052880FBD4
:1004AF00E4F5C8FCFDFEFB7A40791978011200C90A
:1004BF00E47B707A17F9F8120154C3E49FFFE49EAE
:1004CF00AD07AE05F5CB8ECAC2CFD2ADD2AFD2CA71
:0104DF0022FA
:0405280043870122E2
:1004F300011D00040D00000294010C00040800001B
:020503000000F6
:0904E000AF10EF75F03C84F4FF4D
:0A04E900EFC454F0FF440FF5A02209
:03002B000202D4FA
:1002D400C0E0C0F0C083C082C0D075D000C000C0F0
:1002E40001C002C003C004C005C006C007C2CF12CB
:1002F40000218B118A1289131205138B148A158914
:100304001612051A8B178A1889191205218B1A8A55
:100314001B891CE50B2401F50BE4350AF50AE435C9
:1003240009F509E43508F508AB11AA12A91312035B
:1003340090AB14AA15A916120390AB17AA18A91901
:10034400120390AB1AAA1BA91C120390AF10AE0F94
:10035400AD0EAC0DAB0BAA0AA909A808C31201E69D
:10036400700F1201F7750B00750A00750900750806
:1003740000D007D006D005D004D003D002D001D0DD
:0C03840000D0D0D082D083D0F0D0E03286
:1001F700E51D702C7F0F1204E9AB14AA15A9169000
:10020700000212004764026013AB17AA18A91990DD
:100217000002120047640260030202D3751D082220
:10022700E51D640860030202D3AB14AA15A9169052
:100237000002120047B40238E510243CF510E435FB
:100247000FF50FE4350EF50EE4350DF50DE47F845B
:100257007E03FDFCAB10AA0FA90EA80DC31201E681
:10026700400BE4751084750F03F50EF50D0204E0DD
:10027700AB17AA18A919900002120047B4023AC393
:10028700E510943CF510E50F9400F50FE50E94008A
:10029700F50EE50D9400F50DE47F3CFEFDFCAB107B
:1002A700AA0FA90EA80DC31201E6500AE475103C67
:1002B700F50FF50EF50D0204E0E513640245126033
:0D02C70008E51C6402451B7003E4F51D22D0
:070021007B007A00791E222A
:070513007B007A0079212230
:07051A007B007A0079242226
:070521007B007A007927221C
:10000300751E01E4F51FF520752102F522F5237510
:0E0013002404F525F526752708F528F5292281
:10039000900002120047FF701812002E55A0600353
:1003A0000204229000011200A790000274010200D2
:1003B000A7EF6401702890000104120074900001FE
:1003C000120047C39464405A12002E55A070089042
:1003D000000274020200A7900002E40200A7EFB43A
:1003E000021112002E55A0640170379000027404AF
:1003F0000200A7EF6404702A9000010412007490B8
:100400000001120047C39464401812002E55A0FF4B
:10041000BF0107900002E40200A7900002740312DB
:0304200000A72210
:03000000020423D4
:0C042300787FE4F6D8FD75812902046A98
:10002E00BB010689828A83E0225002E722BBFE02D0
:09003E00E32289828A83E4932203
:10004700BB010CE58229F582E5833AF583E022506E
:1000570006E92582F8E622BBFE06E92582F8E222B8
:0D006700E58229F582E5833AF583E49322D2
:10007400BB010FF8E58229F582E5833AF583E02890
:10008400F0225009C58229F8E58226F622BBFE0932
:10009400C58229F8E22582F222F8EA2583F583E96C
:0300A4009328227C
:1000A700F8BB010DE58229F582E5833AF583E8F08F
:1000B700225006E92582C8F622BBFE05E92582C83B
:0200C700F22223
:1000C900E88FF0A4CC8BF0A42CFCE98EF0A42CFCD6
:1000D9008AF0EDA42CFCEA8EF0A4CDA8F08BF0A454
:1000E9002DCC3825F0FDE98FF0A42CCD35F0FCEBB3
:1000F9008EF0A4FEA9F0EB8FF0A4CFC5F02ECD3978
:0F010900FEE43CFCEAA42DCE35F0FDE43CFC22E4
:1001180075F008758200EF2FFFEE33FECD33CDCC9E
:1001280033CCC58233C5829BED9AEC99E582984021
:100138000CF582EE9BFEED9AFDEC99FC0FD5F0D6FE
:10014800E4CEFBE4CDFAE4CCF9A88222B800C1B928
:100158000059BA002DEC8BF084CFCECDFCE5F0CB66
:10016800F97818EF2FFFEE33FEED33FDEC33FCEB9F
:1001780033FB10D703994004EB99FB0FD8E5E4F95A
:10018800FA227818EF2FFFEE33FEED33FDEC33FC47
:10019800C933C910D7059BE99A4007EC9BFCE99A3B
:1001A800F90FD8E0E4C9FAE4CCFB2275F010EF2F80
:1001B800FFEE33FEED33FDCC33CCC833C810D70780
:1001C8009BEC9AE899400AED9BFDEC9AFCE899F8BB
:0E01D8000FD5F0DAE4CDFBE4CCFAE4C8F9224E
:1001E600EB9FF5F0EA9E42F0E99D42F0E89C45F06F
:0101F60022E6
:10042F00020506E493A3F8E493A34003F68001F2D8
:10043F0008DFF48029E493A3F85407240CC8C333CE
:10044F00C4540F4420C8834004F456800146F6DF9D
:10045F00E4800B01020408102040809004F3E47E36
:10046F00019360BCA3FF543F30E509541FFEE49392
:10047F00A360010ECF54C025E060A840B8E493A359
:10048F00FAE493A3F8E493A3C8C582C8CAC583CA84
:10049F00F0A3C8C582C8CAC583CADFE9DEE780BE3C
:0105050000F5
:00000001FF
