:0A001F007F011205B012060280FBFB
:1005B00075C804E4FCFDFEFB7A48F9F81203F6E482
:1005C0007B06FAF9F81204818F158E148D138C12A4
:1005D000C3E49FFFE49EAD07AE05F5CDF5CB8ECC11
:0805E0008ECAD2ADD2CAD2AF1F
:0105E80022F0
:040602004387012207
:1005E900C105C104010C000111000408000000004C
:0805F900C106040D000003E837
:0B000300750C01C200D201D202D20332
:10000E00A20092A7A20192A6A20292A5A20392A476
:01001E0022BF
:03002B0002002EA2
:10002E00C0E0C0F0C083C082C0D075D000C000C098
:10003E0001C002C003C004C005C006C007C2CFAFD6
:10004E000BAE0AAD09AC08EF2401F50BE43EF50A40
:10005E00E43DF509E43CF508E51114601214601452
:10006E001460262403702520A022751101801D75B1
:10007E0011028018D204D200D201C202D2031200A1
:10008E000E30A0087511038003751100E50CB4083D
:10009E000040030203DB9000ABF82828730200C374
:1000AE000201270201810201E00202460202B002B1
:1000BE00031A020380D200120008300424AF10AEDF
:1000CE000FAD0EAC0DAB0BAA0AA909A808C31205F9
:1000DE0013700E120003F50BF50AF509F50802036D
:1000EE00DB2006030203DBAF10AE0FAD0EAC0DAB83
:1000FE000BAA0AA909A808C312051360030203DBA1
:10010E00750C07D200D201D202C20312000EF50BFB
:10011E00F50AF509F5080203DB30042BAF10AE0F1C
:10012E00AD0EAC0DAB0BAA0AA909A808C312051394
:10013E007015750C02C200C20112000AF50BF50A09
:10014E00F509F5080203DB2006030203DBAF10AE50
:10015E000FAD0EAC0DAB0BAA0AA909A808C3120568
:10016E001360030203DBF50CF50BF50AF509F50830
:10017E000203DB30042FAF10AE0FAD0EAC0DAB0B88
:10018E00AA0AA909A808C31205137019750C03C28F
:10019E0000C201C202D20312000EF50BF50AF509D8
:1001AE00F5080203DB2006030203DBAF10AE0FAD32
:1001BE000EAC0DAB0BAA0AA909A808C31205136051
:1001CE00030203DB120003F50BF50AF509F508022D
:1001DE0003DB30042FAF10AE0FAD0EAC0DAB0BAA80
:1001EE000AA909A808C31205137019750C04C200D8
:1001FE00C201C202C20312000EF50BF50AF509F593
:10020E00080203DB2006030203DBAF10AE0FAD0EB8
:10021E00AC0DAB0BAA0AA909A808C31205136003FB
:10022E000203DB750C02C200C20112000AF50BF5C7
:10023E000AF509F5080203DB30042FAF10AE0FAD3F
:10024E000EAC0DAB0BAA0AA909A808C312051370B0
:10025E0019750C05D200C201C202C20312000EF5BE
:10026E000BF50AF509F5080203DB2006030203DB92
:10027E00AF10AE0FAD0EAC0DAB0BAA0AA909A808B4
:10028E00C312051360030203DB750C03C200C20127
:10029E00C202D20312000EF50BF50AF509F508029B
:1002AE0003DB30042FAF10AE0FAD0EAC0DAB0BAAAF
:1002BE000AA909A808C31205137019750C06D200F5
:1002CE00D201C202C20312000EF50BF50AF509F5B2
:1002DE00080203DB2006030203DBAF10AE0FAD0EE8
:1002EE00AC0DAB0BAA0AA909A808C312051360032B
:1002FE000203DB750C04C200C201C202C20312006B
:10030E000EF50BF50AF509F5080203DB30042FAFE5
:10031E0010AE0FAD0EAC0DAB0BAA0AA909A808C3FF
:10032E001205137019750C07D200D201D202C20346
:10033E0012000EF50BF50AF509F5080203DB20068F
:10034E00030203DBAF10AE0FAD0EAC0DAB0BAA0A62
:10035E00A909A808C31205137073750C05D200C243
:10036E0001C202C20312000EF50BF50AF509F508DB
:10037E00805B300427AF10AE0FAD0EAC0DAB0BAAE9
:10038E000AA909A808C31205137011F50CD20012A0
:10039E000008F50BF50AF509F508802F30062CAF8D
:1003AE0010AE0FAD0EAC0DAB0BAA0AA909A808C36F
:1003BE001205137016750C06D200D201C202C203CA
:1003CE0012000EF50BF50AF509F508C204D007D098
:1003DE0006D005D004D003D002D001D000D0D0D0AA
:0803EE0082D083D0F0D0E03290
:030606008F16222A
:03000000020524D2
:0C052400787FE4F6D8FD75812002056B9D
:1003F600E88FF0A4CC8BF0A42CFCE98EF0A42CFCA6
:100406008AF0EDA42CFCEA8EF0A4CDA8F08BF0A423
:100416002DCC3825F0FDE98FF0A42CCD35F0FCEB82
:100426008EF0A4FEA9F0EB8FF0A4CFC5F02ECD3947
:0F043600FEE43CFCEAA42DCE35F0FDE43CFC22B4
:1004450075F008758200EF2FFFEE33FECD33CDCC6E
:1004550033CCC58233C5829BED9AEC99E5829840F1
:100465000CF582EE9BFEED9AFDEC99FC0FD5F0D6CE
:10047500E4CEFBE4CDFAE4CCF9A88222B800C1B9F8
:100485000059BA002DEC8BF084CFCECDFCE5F0CB36
:10049500F97818EF2FFFEE33FEED33FDEC33FCEB6F
:1004A50033FB10D703994004EB99FB0FD8E5E4F92A
:1004B500FA227818EF2FFFEE33FEED33FDEC33FC17
:1004C500C933C910D7059BE99A4007EC9BFCE99A0B
:1004D500F90FD8E0E4C9FAE4CCFB2275F010EF2F50
:1004E500FFEE33FEED33FDCC33CCC833C810D70750
:1004F5009BEC9AE899400AED9BFDEC9AFCE899F88B
:0E0505000FD5F0DAE4CDFBE4CCFAE4C8F9221D
:10051300EB9FF5F0EA9E42F0E99D42F0E89C45F03E
:0105230022B5
:1005300002001FE493A3F8E493A34003F68001F2C2
:1005400008DFF48029E493A3F85407240CC8C333CC
:10055000C4540F4420C8834004F456800146F6DF9B
:10056000E4800B01020408102040809005E9E47E3D
:10057000019360BCA3FF543F30E509541FFEE49390
:10058000A360010ECF54C025E060A840B8E493A357
:10059000FAE493A3F8E493A3C8C582C8CAC583CA82
:1005A000F0A3C8C582C8CAC583CADFE9DEE780BE3A
:0106010000F8
:00000001FF
