:0A001F007F0112057E1205CB80FB65
:10057E0075C804E4FCFDFEFB7A48F9F81203C4E4E6
:10058E007B06FAF9F812044F8F148E138D128C110C
:10059E00C3E49FFFE49EAD07AE05F5CDF5CB8ECC43
:0805AE008ECAD2ADD2CAD2AF51
:0105B6002222
:0405CB00438701223F
:1005B700C104010C00040800000000C105040D007F
:0305C7000003E846
:0B000300750C01C200D201D202D20332
:10000E00A20092A7A20192A6A20292A5A20392A476
:01001E0022BF
:03002B0002002EA2
:10002E00C0E0C0F0C083C082C0D075D000C000C098
:10003E0001C002C003C004C005C006C007C2CFAFD6
:10004E000BAE0AAD09AC08EF2401F50BE43EF50A40
:10005E00E43DF509E43CF508D2A0D204E50CB40861
:10006E000040030203A990007BF828287302009336
:10007E000200F70201510201B002021602028002D2
:10008E0002EA020350D200120008300424AF10AE70
:10009E000FAD0EAC0DAB0BAA0AA909A808C312042A
:1000AE00E1700E120003F50BF50AF509F5080203CF
:1000BE00A92005030203A9AF10AE0FAD0EAC0DAB18
:1000CE000BAA0AA909A808C31204E160030203A936
:1000DE00750C07D200D201D202C20312000EF50B2C
:1000EE00F50AF509F5080203A930042BAF10AE0F7F
:1000FE00AD0EAC0DAB0BAA0AA909A808C31204E1F8
:10010E007015750C02C200C20112000AF50BF50A39
:10011E00F509F5080203A92005030203A9AF10AEE5
:10012E000FAD0EAC0DAB0BAA0AA909A808C3120499
:10013E00E160030203A9F50CF50BF50AF509F508C4
:10014E000203A930042FAF10AE0FAD0EAC0DAB0BEA
:10015E00AA0AA909A808C31204E17019750C03C2F2
:10016E0000C201C202D20312000EF50BF50AF50908
:10017E00F5080203A92005030203A9AF10AE0FADC7
:10018E000EAC0DAB0BAA0AA909A808C31204E160B4
:10019E00030203A9120003F50BF50AF509F508028F
:1001AE0003A930042FAF10AE0FAD0EAC0DAB0BAAE2
:1001BE000AA909A808C31204E17019750C04C2003B
:1001CE00C201C202C20312000EF50BF50AF509F5C3
:1001DE00080203A92005030203A9AF10AE0FAD0E4E
:1001EE00AC0DAB0BAA0AA909A808C31204E160035F
:1001FE000203A9750C02C200C20112000AF50BF52A
:10020E000AF509F5080203A930042FAF10AE0FADA1
:10021E000EAC0DAB0BAA0AA909A808C31204E17013
:10022E0019750C05D200C201C202C20312000EF5EE
:10023E000BF50AF509F5080203A92005030203A927
:10024E00AF10AE0FAD0EAC0DAB0BAA0AA909A808E4
:10025E00C31204E160030203A9750C03C200C201BC
:10026E00C202D20312000EF50BF50AF509F50802CB
:10027E0003A930042FAF10AE0FAD0EAC0DAB0BAA11
:10028E000AA909A808C31204E17019750C06D20058
:10029E00D201C202C20312000EF50BF50AF509F5E2
:1002AE00080203A92005030203A9AF10AE0FAD0E7D
:1002BE00AC0DAB0BAA0AA909A808C31204E160038E
:1002CE000203A9750C04C200C201C202C2031200CD
:1002DE000EF50BF50AF509F5080203A930042FAF48
:1002EE0010AE0FAD0EAC0DAB0BAA0AA909A808C330
:1002FE001204E17019750C07D200D201D202C203AA
:10030E0012000EF50BF50AF509F5080203A92005F2
:10031E00030203A9AF10AE0FAD0EAC0DAB0BAA0AC4
:10032E00A909A808C31204E17071750C05D200C2A8
:10033E0001C202C20312000EF50BF50AF509F5080B
:10034E008059300427AF10AE0FAD0EAC0DAB0BAA1B
:10035E000AA909A808C31204E17011F50CD2001203
:10036E000008F50BF50AF509F508802F30052CAFBE
:10037E0010AE0FAD0EAC0DAB0BAA0AA909A808C39F
:10038E001204E17016750C06D200D201C202C2032D
:10039E0012000EF50BF50AF509F508D007D006D0B8
:1003AE0005D004D003D002D001D000D0D0D082D05E
:0603BE0083D0F0D0E03214
:030000000204F205
:0C04F200787FE4F6D8FD75812002053902
:1003C400E88FF0A4CC8BF0A42CFCE98EF0A42CFCD8
:1003D4008AF0EDA42CFCEA8EF0A4CDA8F08BF0A456
:1003E4002DCC3825F0FDE98FF0A42CCD35F0FCEBB5
:1003F4008EF0A4FEA9F0EB8FF0A4CFC5F02ECD397A
:0F040400FEE43CFCEAA42DCE35F0FDE43CFC22E6
:1004130075F008758200EF2FFFEE33FECD33CDCCA0
:1004230033CCC58233C5829BED9AEC99E582984023
:100433000CF582EE9BFEED9AFDEC99FC0FD5F0D600
:10044300E4CEFBE4CDFAE4CCF9A88222B800C1B92A
:100453000059BA002DEC8BF084CFCECDFCE5F0CB68
:10046300F97818EF2FFFEE33FEED33FDEC33FCEBA1
:1004730033FB10D703994004EB99FB0FD8E5E4F95C
:10048300FA227818EF2FFFEE33FEED33FDEC33FC49
:10049300C933C910D7059BE99A4007EC9BFCE99A3D
:1004A300F90FD8E0E4C9FAE4CCFB2275F010EF2F82
:1004B300FFEE33FEED33FDCC33CCC833C810D70782
:1004C3009BEC9AE899400AED9BFDEC9AFCE899F8BD
:0E04D3000FD5F0DAE4CDFBE4CCFAE4C8F92250
:1004E100EB9FF5F0EA9E42F0E99D42F0E89C45F071
:0104F10022E8
:1004FE0002001FE493A3F8E493A34003F68001F2F5
:10050E0008DFF48029E493A3F85407240CC8C333FE
:10051E00C4540F4420C8834004F456800146F6DFCD
:10052E00E4800B01020408102040809005B7E47EA1
:10053E00019360BCA3FF543F30E509541FFEE493C2
:10054E00A360010ECF54C025E060A840B8E493A389
:10055E00FAE493A3F8E493A3C8C582C8CAC583CAB4
:10056E00F0A3C8C582C8CAC583CADFE9DEE780BE6C
:0105CA000030
:00000001FF
