:10075E007F01120729120003D2A0D2A1D2A2D2A3E6
:05076E001207AF80FB43
:10072900E4F5C8FCFDFEFB7A40791978011204DC76
:10073900E47B707A17F9F8120567C3E49FFFE49E1A
:10074900AD07AE05F5CDF5CB8ECC8ECAC2CFD2ADF5
:04075900D2AFD2CA7F
:01075D002279
:0407AF004387012259
:10077300011C00040C00000294040800000000C1E6
:0307830001C100B1
:09078700AF0FEF75F03C84F4FFA4
:0A079000EFC454F0FF440FF5A0225F
:03002B0002002EA2
:10002E00C0E0C0F0C083C082C0D075D000C000C098
:10003E0001C002C003C004C005C006C007C2CF1273
:10004E0000218B108A11891212079A8B138A148938
:10005E00151207A18B168A1789181207A88B198AF1
:10006E001A891BAF0BAE0AAD09AC08EF2401F50BD4
:10007E00E43EF50AE43DF509E43CF508AB10AA119F
:10008E00A91212060AAB13AA14A91512060AAB1668
:10009E00AA17A91812060AAB19AA1AA91B12060A40
:1000AE00AB13AA14A91590000212045A6402600F31
:1000BE00AB16AA17A91890000212045AB4020675BC
:1000CE001C08020426AB10AA11A9129000021204F9
:1000DE005AB40208B201751C00020426AB19AA1A02
:1000EE00A91B90000212045AB40208B200751C003B
:1000FE00020426E51C7048AF0FAE0EAD0DAC0CAB76
:10010E000BAA0AA909A808C31205F940327F0F12DB
:10011E000790300112751C01750B00750A007509E8
:10012E0000750800020426200003020426751C0731
:10013E00750B00750A00750900750800020426E5A6
:10014E001C64017048AF0FAE0EAD0DAC0CAB0BAA1C
:10015E000AA909A808C31205F940327F07120790B1
:10016E00300112751C02750B00750A0075090075B9
:10017E000800020426200003020426751C00750BDD
:10018E0000750A00750900750800020426E51C6456
:10019E00027048AF0FAE0EAD0DAC0CAB0BAA0AA998
:1001AE0009A808C31205F940327F031207903001E7
:1001BE0012751C03750B00750A0075090075080091
:1001CE00020426200003020426751C01750B00751F
:1001DE000A00750900750800020426E51C64037008
:1001EE0048AF0FAE0EAD0DAC0CAB0BAA0AA909A809
:1001FE0008C31205F940327F0112079030011275C3
:10020E001C04750B00750A007509007508000204C0
:10021E0026200003020426751C02750B00750A00C9
:10022E00750900750800020426E51C64047048AFC9
:10023E000FAE0EAD0DAC0CAB0BAA0AA909A808C3E4
:10024E001205F94032E4FF120790300112751C05B9
:10025E00750B00750A00750900750800020426204A
:10026E000003020426751C03750B00750A00750940
:10027E0000750800020426E51C64057048AF0FAE39
:10028E000EAD0DAC0CAB0BAA0AA909A808C312053A
:10029E00F940327F08120790300112751C06750B5B
:1002AE0000750A0075090075080002042620000377
:1002BE00020426751C04750B00750A00750900757D
:1002CE000800020426E51C64067048AF0FAE0EADA2
:1002DE000DAC0CAB0BAA0AA909A808C31205F9406C
:1002EE00327F0C120790300112751C07750B0075CA
:1002FE000A00750900750800020426200003020496
:10030E0026751C05750B00750A0075090075080029
:10031E00020426E51C64077048AF0FAE0EAD0DAC9F
:10032E000CAB0BAA0AA909A808C31205F940327F23
:10033E000E120790300112751C00750B00750A0025
:10034E0075090075080002042620000302042675B4
:10035E001C06750B00750A0075090075080002046D
:10036E0026E51C64086003020426FF120790AB13F7
:10037E00AA14A91590000212045AB4023BE50F24E8
:10038E003CF50FE4350EF50EE4350DF50DE4350CA8
:10039E00F50CE47F847E03FDFCAB0FAA0EA90DA81D
:1003AE000CC31205F9400C750F84750E03750D0004
:1003BE00750C001207878060AB16AA17A91890005B
:1003CE000212045AB4023EC3E50F943CF50FE50E3B
:1003DE009400F50EE50D9400F50DE50C9400F50C6A
:1003EE00E47F3CFEFDFCAB0FAA0EA90DA80CC312B8
:1003FE0005F9500C750F3C750E00750D00750C004F
:10040E001207878013E512640245116008E51B642C
:10041E0002451A7003751C00D007D006D005D00413
:10042E00D003D002D001D000D0D0D082D083D0F073
:03043E00D0E032D9
:070021007B007A0079212227
:07079A007B007A00792422A4
:0707A1007B007A007927229A
:0707A8007B007A00792A2290
:10000300752101E4F522F523752402F525F52675FE
:0E0013002704F528F529752A08F52BF52C226F
:10060A0090000212045AFF701812044155A06003A8
:10061A0002069C9000011204BA90000274010204BE
:10062A00BAEF640170289000010412048790000157
:10063A0012045AC39414405A12044155A0700890E7
:10064A00000274020204BA900002E40204BAEFB48F
:10065A00021112044155A06401703790000274041B
:10066A000204BAEF6404702A90000104120487900D
:10067A00000112045AC39414401812044155A0FFF1
:10068A00BF0107900002E40204BA90000274031248
:03069A0004BA227D
:0300000002069D58
:0C069D00787FE4F6D8FD75812C0206E49D
:10044100BB010689828A83E0225002E722BBFE02B9
:09045100E32289828A83E49322EC
:10045A00BB010CE58229F582E5833AF583E0225057
:10046A0006E92582F8E622BBFE06E92582F8E222A1
:0D047A00E58229F582E5833AF583E49322BB
:10048700BB010FF8E58229F582E5833AF583E02879
:10049700F0225009C58229F8E58226F622BBFE091B
:1004A700C58229F8E22582F222F8EA2583F583E955
:0304B70093282265
:1004BA00F8BB010DE58229F582E5833AF583E8F078
:1004CA00225006E92582C8F622BBFE05E92582C824
:0204DA00F2220C
:1004DC00E88FF0A4CC8BF0A42CFCE98EF0A42CFCBF
:1004EC008AF0EDA42CFCEA8EF0A4CDA8F08BF0A43D
:1004FC002DCC3825F0FDE98FF0A42CCD35F0FCEB9C
:10050C008EF0A4FEA9F0EB8FF0A4CFC5F02ECD3960
:0F051C00FEE43CFCEAA42DCE35F0FDE43CFC22CD
:10052B0075F008758200EF2FFFEE33FECD33CDCC87
:10053B0033CCC58233C5829BED9AEC99E58298400A
:10054B000CF582EE9BFEED9AFDEC99FC0FD5F0D6E7
:10055B00E4CEFBE4CDFAE4CCF9A88222B800C1B911
:10056B000059BA002DEC8BF084CFCECDFCE5F0CB4F
:10057B00F97818EF2FFFEE33FEED33FDEC33FCEB88
:10058B0033FB10D703994004EB99FB0FD8E5E4F943
:10059B00FA227818EF2FFFEE33FEED33FDEC33FC30
:1005AB00C933C910D7059BE99A4007EC9BFCE99A24
:1005BB00F90FD8E0E4C9FAE4CCFB2275F010EF2F69
:1005CB00FFEE33FEED33FDCC33CCC833C810D70769
:1005DB009BEC9AE899400AED9BFDEC9AFCE899F8A4
:0E05EB000FD5F0DAE4CDFBE4CCFAE4C8F92237
:1005F900EB9FF5F0EA9E42F0E99D42F0E89C45F058
:0106090022CE
:1006A90002075EE493A3F8E493A34003F68001F202
:1006B90008DFF48029E493A3F85407240CC8C33352
:1006C900C4540F4420C8834004F456800146F6DF21
:1006D900E4800B0102040810204080900773E47E37
:1006E900019360BCA3FF543F30E509541FFEE49316
:1006F900A360010ECF54C025E060A840B8E493A3DD
:10070900FAE493A3F8E493A3C8C582C8CAC583CA07
:10071900F0A3C8C582C8CAC583CADFE9DEE780BEBF
:010786000072
:00000001FF
