:100751007F0112071C120003D2A0D2A1D2A2D2A300
:0507610012079680FB69
:10071C00E4F5C8FCFDFEFB7A40791978011204CF90
:10072C00E47B707A17F9F812055AC3E49FFFE49E34
:10073C00AD07AE05F5CDF5CB8ECC8ECAC2CFD2AD02
:04074C00D2AFD2CA8C
:010750002286
:040796004387012272
:10076600011C00040C00000294040800000000C1F3
:0307760001C100BE
:0A002100EFC454F0FF440FF5A022D5
:03002B0002002EA2
:10002E00C0E0C0F0C083C082C0D075D000C000C098
:10003E0001C002C003C004C005C006C007C2CF1273
:10004E00077A8B108A1189121207818B138A1489F1
:10005E00151207888B168A17891812078F8B198A23
:10006E001A891BAF0BAE0AAD09AC08EF2401F50BD4
:10007E00E43EF50AE43DF509E43CF508AB10AA119F
:10008E00A9121205FDAB13AA14A9151205FDAB1684
:10009E00AA17A9181205FDAB19AA1AA91B1205FD5C
:1000AE00E51C70587F0F120021AB10AA11A91290F7
:1000BE00000212044DB40206751C01020419AB199C
:1000CE00AA1AA91B90000212044DB40206751C0553
:1000DE00020419AB13AA14A91590000212044D6460
:1000EE00026013AB16AA17A91890000212044D64F1
:1000FE00026003020419751C09020419E51C64014F
:10010E0070457F07120021AF0FAE0EAD0DAC0CABDC
:10011E000BAA0AA909A808C31205EC4012751C0205
:10012E00750B00750A00750900750800020419ABFD
:10013E0010AA11A91290000212044D64026003026B
:10014E000419F51C020419E51C640270457F0312A4
:10015E000021AF0FAE0EAD0DAC0CAB0BAA0AA90968
:10016E00A808C31205EC4012751C03750B00750A26
:10017E0000750900750800020419AB10AA11A91226
:10018E0090000212044D64026003020419F51C0271
:10019E000419E51C640370457F01120021AF0FAEF8
:1001AE000EAD0DAC0CAB0BAA0AA909A808C312051B
:1001BE00EC4012751C04750B00750A00750900756C
:1001CE000800020419AB10AA11A912900002120421
:1001DE004D64026003020419F51C020419E51C6447
:1001EE00047044FF120021AF0FAE0EAD0DAC0CAB80
:1001FE000BAA0AA909A808C31205EC4012751C0126
:10020E00750B00750A00750900750800020419AB1C
:10021E0010AA11A91290000212044D64026003028A
:10022E000419F51C020419E51C640570457F0E12B5
:10023E000021AF0FAE0EAD0DAC0CAB0BAA0AA90987
:10024E00A808C31205EC4012751C06750B00750A42
:10025E0000750900750800020419AB19AA1AA91B2A
:10026E0090000212044D64026003020419F51C0290
:10027E000419E51C640670457F0C120021AF0FAE09
:10028E000EAD0DAC0CAB0BAA0AA909A808C312053A
:10029E00EC4012751C07750B00750A007509007588
:1002AE000800020419AB19AA1AA91B900002120425
:1002BE004D64026003020419F51C020419E51C6466
:1002CE000770457F08120021AF0FAE0EAD0DAC0CBE
:1002DE00AB0BAA0AA909A808C31205EC4012751C9B
:1002EE0008750B00750A00750900750800020419DF
:1002FE00AB19AA1AA91B90000212044D64026003E6
:10030E00020419F51C020419E51C64087044FF125E
:10031E000021AF0FAE0EAD0DAC0CAB0BAA0AA909A6
:10032E00A808C31205EC4012751C05750B00750A62
:10033E0000750900750800020419AB19AA1AA91B49
:10034E0090000212044D64026003020419F51C02AF
:10035E000419E51C64096003020419AF0FEF75F070
:10036E003C84F4FF120021AB13AA14A915900002CD
:10037E0012044DB40238E50F243CF50FE4350EF5AA
:10038E000EE4350DF50DE4350CF50CE47F847E039B
:10039E00FDFCAB0FAA0EA90DA80CC31205EC406B09
:1003AE00750F84750E03750D00750C00805DAB1610
:1003BE00AA17A91890000212044DB4023BC3E50F10
:1003CE00943CF50FE50E9400F50EE50D9400F50D39
:1003DE00E50C9400F50CE47F3CFEFDFCAB0FAA0E81
:1003EE00A90DA80CC31205EC5021750F3C750E001B
:1003FE00750D00750C008013E5126402451160083E
:10040E00E51B6402451A7003751C00D007D006D098
:10041E0005D004D003D002D001D000D0D0D082D0ED
:06042E0083D0F0D0E032A3
:07077A007B007A00792122C7
:070781007B007A00792422BD
:070788007B007A00792722B3
:07078F007B007A00792A22A9
:10000300752101E4F522F523752402F525F52675FE
:0E0013002704F528F529752A08F52BF52C226F
:1005FD0090000212044DFF701812043455A06003D0
:10060D0002068F9000011204AD90000274010204E5
:10061D00ADEF640170289000010412047A9000017E
:10062D0012044DC39414405A12043455A07008900E
:10063D00000274020204AD900002E40204ADEFB4B6
:10064D00021112043455A064017037900002740435
:10065D000204ADEF6404702A9000010412047A9034
:10066D00000112044DC39414401812043455A0FF18
:10067D00BF0107900002E40204AD90000274031262
:03068D0004AD2297
:0300000002069065
:0C069000787FE4F6D8FD75812C0206D7B7
:10043400BB010689828A83E0225002E722BBFE02C6
:09044400E32289828A83E49322F9
:10044D00BB010CE58229F582E5833AF583E0225064
:10045D0006E92582F8E622BBFE06E92582F8E222AE
:0D046D00E58229F582E5833AF583E49322C8
:10047A00BB010FF8E58229F582E5833AF583E02886
:10048A00F0225009C58229F8E58226F622BBFE0928
:10049A00C58229F8E22582F222F8EA2583F583E962
:0304AA0093282272
:1004AD00F8BB010DE58229F582E5833AF583E8F085
:1004BD00225006E92582C8F622BBFE05E92582C831
:0204CD00F22219
:1004CF00E88FF0A4CC8BF0A42CFCE98EF0A42CFCCC
:1004DF008AF0EDA42CFCEA8EF0A4CDA8F08BF0A44A
:1004EF002DCC3825F0FDE98FF0A42CCD35F0FCEBA9
:1004FF008EF0A4FEA9F0EB8FF0A4CFC5F02ECD396E
:0F050F00FEE43CFCEAA42DCE35F0FDE43CFC22DA
:10051E0075F008758200EF2FFFEE33FECD33CDCC94
:10052E0033CCC58233C5829BED9AEC99E582984017
:10053E000CF582EE9BFEED9AFDEC99FC0FD5F0D6F4
:10054E00E4CEFBE4CDFAE4CCF9A88222B800C1B91E
:10055E000059BA002DEC8BF084CFCECDFCE5F0CB5C
:10056E00F97818EF2FFFEE33FEED33FDEC33FCEB95
:10057E0033FB10D703994004EB99FB0FD8E5E4F950
:10058E00FA227818EF2FFFEE33FEED33FDEC33FC3D
:10059E00C933C910D7059BE99A4007EC9BFCE99A31
:1005AE00F90FD8E0E4C9FAE4CCFB2275F010EF2F76
:1005BE00FFEE33FEED33FDCC33CCC833C810D70776
:1005CE009BEC9AE899400AED9BFDEC9AFCE899F8B1
:0E05DE000FD5F0DAE4CDFBE4CCFAE4C8F92244
:1005EC00EB9FF5F0EA9E42F0E99D42F0E89C45F065
:0105FC0022DC
:10069C00020751E493A3F8E493A34003F68001F21C
:1006AC0008DFF48029E493A3F85407240CC8C3335F
:1006BC00C4540F4420C8834004F456800146F6DF2E
:1006CC00E4800B0102040810204080900766E47E51
:1006DC00019360BCA3FF543F30E509541FFEE49323
:1006EC00A360010ECF54C025E060A840B8E493A3EA
:1006FC00FAE493A3F8E493A3C8C582C8CAC583CA15
:10070C00F0A3C8C582C8CAC583CADFE9DEE780BECC
:01077900007F
:00000001FF
